{
  "contractName": "Lotto",
  "abi": [
    {
      "inputs": [
        {
          "internalType": "uint256",
          "name": "_nOptions",
          "type": "uint256"
        },
        {
          "internalType": "uint256",
          "name": "_nextDrawingTime",
          "type": "uint256"
        }
      ],
      "payable": false,
      "stateMutability": "nonpayable",
      "type": "constructor"
    },
    {
      "anonymous": false,
      "inputs": [
        {
          "indexed": false,
          "internalType": "uint256",
          "name": "option",
          "type": "uint256"
        }
      ],
      "name": "Winning_option",
      "type": "event"
    },
    {
      "constant": true,
      "inputs": [
        {
          "internalType": "uint256",
          "name": "",
          "type": "uint256"
        }
      ],
      "name": "bets",
      "outputs": [
        {
          "internalType": "address payable",
          "name": "user",
          "type": "address"
        },
        {
          "internalType": "uint256",
          "name": "weight_wei",
          "type": "uint256"
        },
        {
          "internalType": "uint256",
          "name": "option_idx",
          "type": "uint256"
        }
      ],
      "payable": false,
      "stateMutability": "view",
      "type": "function"
    },
    {
      "constant": true,
      "inputs": [
        {
          "internalType": "address",
          "name": "",
          "type": "address"
        }
      ],
      "name": "hasPlacedBet",
      "outputs": [
        {
          "internalType": "bool",
          "name": "",
          "type": "bool"
        }
      ],
      "payable": false,
      "stateMutability": "view",
      "type": "function"
    },
    {
      "constant": true,
      "inputs": [
        {
          "internalType": "uint256",
          "name": "",
          "type": "uint256"
        }
      ],
      "name": "prevBets",
      "outputs": [
        {
          "internalType": "address payable",
          "name": "user",
          "type": "address"
        },
        {
          "internalType": "uint256",
          "name": "weight_wei",
          "type": "uint256"
        },
        {
          "internalType": "uint256",
          "name": "option_idx",
          "type": "uint256"
        }
      ],
      "payable": false,
      "stateMutability": "view",
      "type": "function"
    },
    {
      "constant": true,
      "inputs": [],
      "name": "nBets",
      "outputs": [
        {
          "internalType": "uint256",
          "name": "",
          "type": "uint256"
        }
      ],
      "payable": false,
      "stateMutability": "view",
      "type": "function"
    },
    {
      "constant": true,
      "inputs": [
        {
          "internalType": "uint256",
          "name": "_idx",
          "type": "uint256"
        }
      ],
      "name": "getNextDrawingTime",
      "outputs": [
        {
          "internalType": "uint256",
          "name": "",
          "type": "uint256"
        }
      ],
      "payable": false,
      "stateMutability": "view",
      "type": "function"
    },
    {
      "constant": true,
      "inputs": [
        {
          "internalType": "uint256",
          "name": "_idx",
          "type": "uint256"
        }
      ],
      "name": "getNOptions",
      "outputs": [
        {
          "internalType": "uint256",
          "name": "",
          "type": "uint256"
        }
      ],
      "payable": false,
      "stateMutability": "view",
      "type": "function"
    },
    {
      "constant": true,
      "inputs": [
        {
          "internalType": "uint256",
          "name": "_idx",
          "type": "uint256"
        }
      ],
      "name": "getWinningOption",
      "outputs": [
        {
          "internalType": "uint256",
          "name": "",
          "type": "uint256"
        }
      ],
      "payable": false,
      "stateMutability": "view",
      "type": "function"
    },
    {
      "constant": true,
      "inputs": [],
      "name": "getBets",
      "outputs": [
        {
          "internalType": "address[]",
          "name": "",
          "type": "address[]"
        },
        {
          "internalType": "uint256[]",
          "name": "",
          "type": "uint256[]"
        },
        {
          "internalType": "uint256[]",
          "name": "",
          "type": "uint256[]"
        }
      ],
      "payable": false,
      "stateMutability": "view",
      "type": "function"
    },
    {
      "constant": true,
      "inputs": [],
      "name": "getPrevBets",
      "outputs": [
        {
          "internalType": "address[]",
          "name": "",
          "type": "address[]"
        },
        {
          "internalType": "uint256[]",
          "name": "",
          "type": "uint256[]"
        },
        {
          "internalType": "uint256[]",
          "name": "",
          "type": "uint256[]"
        }
      ],
      "payable": false,
      "stateMutability": "view",
      "type": "function"
    },
    {
      "constant": false,
      "inputs": [
        {
          "internalType": "uint256",
          "name": "_nOptions",
          "type": "uint256"
        },
        {
          "internalType": "uint256",
          "name": "_nextDrawingTime",
          "type": "uint256"
        }
      ],
      "name": "eval_reset",
      "outputs": [],
      "payable": false,
      "stateMutability": "nonpayable",
      "type": "function"
    },
    {
      "constant": false,
      "inputs": [
        {
          "internalType": "uint256",
          "name": "option_idx",
          "type": "uint256"
        }
      ],
      "name": "placeBet",
      "outputs": [],
      "payable": true,
      "stateMutability": "payable",
      "type": "function"
    },
    {
      "constant": true,
      "inputs": [],
      "name": "viewMyBet",
      "outputs": [
        {
          "internalType": "address",
          "name": "",
          "type": "address"
        },
        {
          "internalType": "uint256",
          "name": "",
          "type": "uint256"
        },
        {
          "internalType": "uint256",
          "name": "",
          "type": "uint256"
        }
      ],
      "payable": false,
      "stateMutability": "view",
      "type": "function"
    }
  ],
  "bytecode": "0x60806040526000601e55600a601f5534801561001a57600080fd5b506040516118f93803806118f98339818101604052604081101561003d57600080fd5b81019080805190602001909291908051906020019092919050505081600a601e54600a811061006857fe5b0181905550806000601e54600a811061007d57fe5b01819055505050611866806100936000396000f3fe6080604052600436106100a75760003560e01c806353ecaf571161006457806353ecaf5714610342578063a628687014610387578063a6afd5fd146103d6578063bcd3b664146104d2578063c9b8df5b1461055b578063f3e9c5a2146105c0576100a7565b806308cc2a1c146100ac57806310fe7c48146100d757806311436b56146101055780631b250ba81461016e57806322af00fa146101bd5780634a77c3d214610246575b600080fd5b3480156100b857600080fd5b506100c161060f565b6040518082815260200191505060405180910390f35b610103600480360360208110156100ed57600080fd5b810190808035906020019092919050505061061c565b005b34801561011157600080fd5b506101546004803603602081101561012857600080fd5b81019080803573ffffffffffffffffffffffffffffffffffffffff1690602001909291905050506109a6565b604051808215151515815260200191505060405180910390f35b34801561017a57600080fd5b506101a76004803603602081101561019157600080fd5b81019080803590602001909291905050506109c6565b6040518082815260200191505060405180910390f35b3480156101c957600080fd5b506101f6600480360360208110156101e057600080fd5b81019080803590602001909291905050506109f2565b604051808473ffffffffffffffffffffffffffffffffffffffff1673ffffffffffffffffffffffffffffffffffffffff168152602001838152602001828152602001935050505060405180910390f35b34801561025257600080fd5b5061025b610a49565b60405180806020018060200180602001848103845287818151815260200191508051906020019060200280838360005b838110156102a657808201518184015260208101905061028b565b50505050905001848103835286818151815260200191508051906020019060200280838360005b838110156102e85780820151818401526020810190506102cd565b50505050905001848103825285818151815260200191508051906020019060200280838360005b8381101561032a57808201518184015260208101905061030f565b50505050905001965050505050505060405180910390f35b34801561034e57600080fd5b506103856004803603604081101561036557600080fd5b810190808035906020019092919080359060200190929190505050610a63565b005b34801561039357600080fd5b506103c0600480360360208110156103aa57600080fd5b8101908080359060200190929190505050610c07565b6040518082815260200191505060405180910390f35b3480156103e257600080fd5b506103eb610c33565b60405180806020018060200180602001848103845287818151815260200191508051906020019060200280838360005b8381101561043657808201518184015260208101905061041b565b50505050905001848103835286818151815260200191508051906020019060200280838360005b8381101561047857808201518184015260208101905061045d565b50505050905001848103825285818151815260200191508051906020019060200280838360005b838110156104ba57808201518184015260208101905061049f565b50505050905001965050505050505060405180910390f35b3480156104de57600080fd5b5061050b600480360360208110156104f557600080fd5b8101908080359060200190929190505050610c4d565b604051808473ffffffffffffffffffffffffffffffffffffffff1673ffffffffffffffffffffffffffffffffffffffff168152602001838152602001828152602001935050505060405180910390f35b34801561056757600080fd5b50610570610ca4565b604051808473ffffffffffffffffffffffffffffffffffffffff1673ffffffffffffffffffffffffffffffffffffffff168152602001838152602001828152602001935050505060405180910390f35b3480156105cc57600080fd5b506105f9600480360360208110156105e357600080fd5b8101908080359060200190929190505050610e4f565b6040518082815260200191505060405180910390f35b6000602080549050905090565b8060001115801561063c5750600a601e54600a811061063757fe5b015481105b8160405160200180828152602001807f206973206e6f7420612076616c6964206f7074696f6e000000000000000000008152506016019150506040516020818303038152906040529061072a576040517f08c379a00000000000000000000000000000000000000000000000000000000081526004018080602001828103825283818151815260200191508051906020019080838360005b838110156106ef5780820151818401526020810190506106d4565b50505050905090810190601f16801561071c5780820380516001836020036101000a031916815260200191505b509250505060405180910390fd5b506000601e54600a811061073a57fe5b01544210610793576040517f08c379a000000000000000000000000000000000000000000000000000000000815260040180806020018281038252603f8152602001806116ff603f913960400191505060405180910390fd5b602260003373ffffffffffffffffffffffffffffffffffffffff1673ffffffffffffffffffffffffffffffffffffffff16815260200190815260200160002060009054906101000a900460ff1615610836576040517f08c379a00000000000000000000000000000000000000000000000000000000081526004018080602001828103825260368152602001806117ae6036913960400191505060405180910390fd5b6000341161088f576040517f08c379a000000000000000000000000000000000000000000000000000000000815260040180806020018281038252603f81526020018061176f603f913960400191505060405180910390fd5b602060405180606001604052803373ffffffffffffffffffffffffffffffffffffffff168152602001348152602001838152509080600181540180825580915050906001820390600052602060002090600302016000909192909190915060008201518160000160006101000a81548173ffffffffffffffffffffffffffffffffffffffff021916908373ffffffffffffffffffffffffffffffffffffffff16021790555060208201518160010155604082015181600201555050506001602260003373ffffffffffffffffffffffffffffffffffffffff1673ffffffffffffffffffffffffffffffffffffffff16815260200190815260200160002060006101000a81548160ff02191690831515021790555050565b60226020528060005260406000206000915054906101000a900460ff1681565b600080601f5483601e5403816109d857fe5b069050600081600a81106109e857fe5b0154915050919050565b602081815481106109ff57fe5b90600052602060002090600302016000915090508060000160009054906101000a900473ffffffffffffffffffffffffffffffffffffffff16908060010154908060020154905083565b6060806060610a586021610e7b565b925092509250909192565b426000601e54600a8110610a7357fe5b01541060405160200180806117e460259139602501905060405160208183030381529060405290610b3f576040517f08c379a00000000000000000000000000000000000000000000000000000000081526004018080602001828103825283818151815260200191508051906020019080838360005b83811015610b04578082015181840152602081019050610ae9565b50505050905090810190601f168015610b315780820380516001836020036101000a031916815260200191505b509250505060405180910390fd5b5060018211610b99576040517f08c379a000000000000000000000000000000000000000000000000000000000815260040180806020018281038252603181526020018061173e6031913960400191505060405180910390fd5b428111610bf1576040517f08c379a00000000000000000000000000000000000000000000000000000000081526004018080602001828103825260298152602001806118096029913960400191505060405180910390fd5b610bf961101e565b610c03828261148f565b5050565b600080601f5483601e540381610c1957fe5b069050601481600a8110610c2957fe5b0154915050919050565b6060806060610c426020610e7b565b925092509250909192565b60218181548110610c5a57fe5b90600052602060002090600302016000915090508060000160009054906101000a900473ffffffffffffffffffffffffffffffffffffffff16908060010154908060020154905083565b6000806000602260003373ffffffffffffffffffffffffffffffffffffffff1673ffffffffffffffffffffffffffffffffffffffff16815260200190815260200160002060009054906101000a900460ff16610d68576040517f08c379a000000000000000000000000000000000000000000000000000000000815260040180806020018281038252601d8152602001807f7573657220686173206e6f7420706c616365642061206265742079657400000081525060200191505060405180910390fd5b6000610d7261060f565b905060008090505b81811015610e4757600060208281548110610d9157fe5b906000526020600020906003020190503373ffffffffffffffffffffffffffffffffffffffff168160000160009054906101000a900473ffffffffffffffffffffffffffffffffffffffff1673ffffffffffffffffffffffffffffffffffffffff161415610e39578060000160009054906101000a900473ffffffffffffffffffffffffffffffffffffffff1681600101548260020154829250955095509550505050610e4a565b508080600101915050610d7a565b50505b909192565b600080601f5483601e540381610e6157fe5b069050600a81600a8110610e7157fe5b0154915050919050565b6060806060808480549050604051908082528060200260200182016040528015610eb45781602001602082028038833980820191505090505b50905060608580549050604051908082528060200260200182016040528015610eec5781602001602082028038833980820191505090505b50905060608680549050604051908082528060200260200182016040528015610f245781602001602082028038833980820191505090505b50905060008090505b878054905081101561100a576000888281548110610f4757fe5b906000526020600020906003020190508060000160009054906101000a900473ffffffffffffffffffffffffffffffffffffffff16858381518110610f8857fe5b602002602001019073ffffffffffffffffffffffffffffffffffffffff16908173ffffffffffffffffffffffffffffffffffffffff16815250508060010154848381518110610fd357fe5b6020026020010181815250508060020154838381518110610ff057fe5b602002602001018181525050508080600101915050610f2d565b508282829550955095505050509193909250565b600061102861060f565b14156110335761148d565b6060600a601e54600a811061104457fe5b01546040519080825280602002602001820160405280156110745781602001602082028038833980820191505090505b50905060008090505b6020805490508110156110de5760006020828154811061109957fe5b906000526020600020906003020190508060010154838260020154815181106110be57fe5b60200260200101818151019150818152505050808060010191505061107d565b506060600a601e54600a81106110f057fe5b01546040519080825280602002602001820160405280156111205781602001602082028038833980820191505090505b5090508160008151811061113057fe5b60200260200101518160008151811061114557fe5b6020026020010181815250506000600190505b600a601e54600a811061116757fe5b01548110156111c15782818151811061117c57fe5b602002602001015182600183038151811061119357fe5b6020026020010151018282815181106111a857fe5b6020026020010181815250508080600101915050611158565b506000816001600a601e54600a81106111d657fe5b015403815181106111e357fe5b60200260200101519050600081116111f757fe5b6000814233604051602001808381526020018273ffffffffffffffffffffffffffffffffffffffff1673ffffffffffffffffffffffffffffffffffffffff1660601b8152601401925050506040516020818303038152906040528051906020012060001c8161126257fe5b069050600080600090505b600a601e54600a811061127c57fe5b01548110156113015784818151811061129157fe5b60200260200101518310156112f4578091507f463d0e96e77f49cd0f14b49e755cf10a485a7158b0d2c3aa21af5b41bde35190826040518082815260200191505060405180910390a1816014601e54600a81106112ea57fe5b0181905550611301565b808060010191505061126d565b50600085828151811061131057fe5b6020026020010151905060008090505b6020805490508110156114855760006020828154811061133c57fe5b90600052602060002090600302019050838160020154141561147757828160010154111561136657fe5b60008160000160009054906101000a900473ffffffffffffffffffffffffffffffffffffffff1673ffffffffffffffffffffffffffffffffffffffff168483600101548902816113b257fe5b0460405180600001905060006040518083038185875af1925050503d80600081146113f9576040519150601f19603f3d011682016040523d82523d6000602084013e6113fe565b606091505b5050905080611475576040517f08c379a00000000000000000000000000000000000000000000000000000000081526004018080602001828103825260128152602001807f5472616e73616374696f6e206661696c6564000000000000000000000000000081525060200191505060405180910390fd5b505b508080600101915050611320565b505050505050505b565b60008090505b60208054905081101561153c5760226000602083815481106114b357fe5b906000526020600020906003020160000160009054906101000a900473ffffffffffffffffffffffffffffffffffffffff1673ffffffffffffffffffffffffffffffffffffffff1673ffffffffffffffffffffffffffffffffffffffff16815260200190815260200160002060006101000a81549060ff02191690558080600101915050611495565b506021600061154b91906115b1565b6020602190805461155d9291906115d5565b506020600061156c91906115b1565b601f546001601e54018161157c57fe5b06601e81905550806000601e54600a811061159357fe5b018190555081600a601e54600a81106115a857fe5b01819055505050565b50805460008255600302906000526020600020908101906115d291906116a8565b50565b8280548282559060005260206000209060030281019282156116975760005260206000209160030282015b828111156116965782826000820160009054906101000a900473ffffffffffffffffffffffffffffffffffffffff168160000160006101000a81548173ffffffffffffffffffffffffffffffffffffffff021916908373ffffffffffffffffffffffffffffffffffffffff1602179055506001820154816001015560028201548160020155505091600301919060030190611600565b5b5090506116a491906116a8565b5090565b6116fb91905b808211156116f757600080820160006101000a81549073ffffffffffffffffffffffffffffffffffffffff021916905560018201600090556002820160009055506003016116ae565b5090565b9056fe7468652063757272656e74206c6f747465727920697320636c6f73656420666f7220626574732e2077616974696e6720666f72206576616c756174696f6e2e6d6f7265207468616e206f6e65206f7074696f6e732061726520726571756972656420746f2063686f6f73652066726f6d746f20706c6163652061206265742c20746865206d73672e76616c75652028746865206d6f6e6579206265696e672062657429206d757374206265203e203073656e6465722068617320616c726561647920706c6163656420612062657420696e207468652063757272656e74206c6f74746572797468652063757272656e74206c6f7474657279206973206e6f7420636c6f73656420796574746865206e65787444726177696e6754696d65206d75737420626520696e2074686520667574757265a265627a7a72315820a266c45da000713fc366aca4e89f0443ecc6bf54865a62aced9c4daaa060de6f64736f6c63430005100032",
  "source": "pragma solidity >=0.5.16;\n\n\ncontract Lotto {\n    event Winning_option(uint256 option);\n\n    // unix timestamp representing the time when the current\n    // lottery ends and a new one starts.\n    uint256[10] private nextDrawingTime;\n    // number of options available in the current lottery\n    uint256[10] private nOptions;\n    // history of options which have won the lottery\n    uint256[10] private winningOption;\n    // pointer to the current head-location in nOptions and nextDrawingTime\n    uint256 private head = 0;\n    // note: nHistory is the length of the history which is stored. This number is hard coded\n    // in the arrays `nextDrawingTime` and `nOptions` due to the fact that its not possible to\n    // create an array of static length using a variable as the indicator of the length.\n    // explanation at: https://ethereum.stackexchange.com/a/12434\n    uint256 private nHistory = 10;\n\n    struct Bet {\n        address payable user; // the users ethereum address who has placed the bet\n        uint256 weight_wei; // amount of ether spent in wei\n        uint256 option_idx; // index into the option array\n    }\n\n    Bet[] public bets; // list of bets for the current Lottery\n    Bet[] public prevBets; // list of bets from the previous Lottery\n\n    mapping(address => bool) public hasPlacedBet; // mapping to check if a user has already set a bet\n\n    constructor(uint256 _nOptions, uint256 _nextDrawingTime) public {\n        nOptions[head] = _nOptions;\n        nextDrawingTime[head] = _nextDrawingTime;\n    }\n\n    function nBets() public view returns (uint256) {\n        return bets.length;\n    }\n\n    function getNextDrawingTime(uint256 _idx) public view returns (uint) {\n        uint256 idx = (head - _idx) % nHistory;\n        return nextDrawingTime[idx];\n    }\n\n    function getNOptions(uint256 _idx) public view returns (uint) {\n        uint256 idx = (head - _idx) % nHistory;\n        return nOptions[idx];\n    }\n\n    function getWinningOption(uint256 _idx) public view returns (uint) {\n        uint256 idx = (head - _idx) % nHistory;\n        return winningOption[idx];\n    }\n\n    function getBetsOf(Bet[] storage _bets) internal view returns (address[] memory, uint[] memory, uint[] memory) {\n        address[] memory addrs = new address[](_bets.length);\n        uint[] memory weights = new uint[](_bets.length);\n        uint[] memory opt_idcs = new uint[](_bets.length);\n\n        for (uint256 i = 0; i < _bets.length; i++) {\n            Bet storage bet = _bets[i];\n            addrs[i] = bet.user;\n            weights[i] = bet.weight_wei;\n            opt_idcs[i] = bet.option_idx;\n        }\n\n        return (addrs, weights, opt_idcs);\n    }\n\n    function getBets() public view returns (address[] memory, uint[] memory, uint[] memory) {\n        return getBetsOf(bets);\n    }\n\n    function getPrevBets() public view returns (address[] memory, uint[] memory, uint[] memory) {\n        return getBetsOf(prevBets);\n    }\n\n    function _resetLottery(uint256 _nOptions, uint256 _nextDrawingTime) private {\n        for (uint256 i = 0; i < bets.length; i++) {\n            delete hasPlacedBet[bets[i].user];\n        }\n        delete prevBets;\n\n        prevBets = bets;\n        delete bets;\n\n        head = (head + 1) % nHistory;\n        nextDrawingTime[head] = _nextDrawingTime;\n        nOptions[head] = _nOptions;\n    }\n\n    function _eval() private {\n        if (nBets() == 0) {\n            return;\n        }\n\n        // for every option, sum all the money (weigh_wei) up and save it in\n        // the temporary array weightPerOption.\n        uint256[] memory weightPerOption = new uint256[](nOptions[head]);\n        for (uint256 i = 0; i < bets.length; i++) {\n            Bet storage bet = bets[i];\n            weightPerOption[bet.option_idx] += bet.weight_wei;\n        }\n\n        // create a cumulative sum array named cumWeight over weightPerOption.\n        uint256[] memory cumWeight = new uint256[](nOptions[head]);\n        cumWeight[0] = weightPerOption[0];\n        for (uint256 i = 1; i < nOptions[head]; i++) {\n            cumWeight[i] = cumWeight[i - 1] + weightPerOption[i];\n        }\n\n        // sum_wei is the sum of all the money that has been bet in this lottery\n        uint256 sum_wei = cumWeight[nOptions[head] - 1];\n\n        // this assert holds becaus if no bet has been place we have already returned and\n        // it is not possible to place a bet with a weight of 0.\n        assert(sum_wei > 0);\n        // todo: subtract our own money from sum_wei\n\n        // winning_value is a random number in range [0, sum_wei-1].\n        // winning_option is the option (a number in range [0, nOptions[head]-1]) which has won the lottery.\n        uint256 winning_value = uint256(\n            keccak256(abi.encodePacked(now, msg.sender))\n        ) % sum_wei;\n        uint256 winning_option;\n        for (uint256 i = 0; i < nOptions[head]; i++) {\n            if (winning_value < cumWeight[i]) {\n                winning_option = i;\n                emit Winning_option(winning_option);\n                winningOption[head] = winning_option;\n                break;\n            }\n        }\n\n        // pay out every user who has bet on the winning_option.\n        // the money he receives is a fraction of all the money in the jackpot:\n        // the fraction is what the current user has bet on the winning_option (bet.weight_wei)\n        // compared to all the money that has been bet on the winning_option (winning_option_sum)\n        uint256 winning_option_sum = weightPerOption[winning_option];\n        for (uint256 i = 0; i < bets.length; i++) {\n            Bet storage bet = bets[i];\n            if (bet.option_idx == winning_option) {\n                // using call.value() due to: https://ethereum.stackexchange.com/a/19343\n                assert(bet.weight_wei <= winning_option_sum);\n                // uint256 fraction = bet.weight_wei / winning_option_sum; // note: if not divisible, remainder of money is kept\n                (bool success, ) = bet.user.call.value(sum_wei * bet.weight_wei / winning_option_sum)(\"\");\n                require(success, \"Transaction failed\");\n            }\n        }\n    }\n\n    function eval_reset(uint256 _nOptions, uint256 _nextDrawingTime) public {\n        require(nextDrawingTime[head] < now, string(abi.encodePacked(\"the current lottery is not closed yet\")));\n        require(_nOptions > 1, \"more than one options are required to choose from\");\n        require(_nextDrawingTime > now, \"the nextDrawingTime must be in the future\");\n        _eval();\n        _resetLottery(_nOptions, _nextDrawingTime);\n    }\n\n    function placeBet(uint256 option_idx) public payable {\n        require(0 <= option_idx && option_idx < nOptions[head], string(abi.encodePacked(option_idx, \" is not a valid option\")));\n        require(now < nextDrawingTime[head], \"the current lottery is closed for bets. waiting for evaluation.\");\n        require(!hasPlacedBet[msg.sender], \"sender has already placed a bet in the current lottery\");\n        require(msg.value > 0, \"to place a bet, the msg.value (the money being bet) must be > 0\");\n        bets.push(Bet(msg.sender, msg.value, option_idx));\n        hasPlacedBet[msg.sender] = true;\n    }\n\n    function viewMyBet() public view returns (address, uint, uint) {\n        require(hasPlacedBet[msg.sender], \"user has not placed a bet yet\");\n        uint256 numBets = nBets();\n        for (uint256 i = 0; i < numBets; i++) {\n            Bet storage bet = bets[i];\n            if (bet.user == msg.sender) {\n                return (bet.user, bet.weight_wei, bet.option_idx);\n            }\n        }\n    }\n}\n",
  "sourcePath": "/home/hs/Documents/v/FHNW/Module/Sem6/blch/blch_lottery/contracts/Lotto.sol",
  "compiler": {
    "name": "solc",
    "version": "0.5.16+commit.9c3226ce.Emscripten.clang"
  },
  "schemaVersion": "3.2.0",
  "updatedAt": "2020-06-09T22:22:19.745Z",
  "networkType": "ethereum",
  "devdoc": {
    "methods": {}
  },
  "userdoc": {
    "methods": {}
  }
}