{
  "contractName": "Lotto",
  "abi": [
    {
      "inputs": [
        {
          "internalType": "uint256",
          "name": "_nOptions",
          "type": "uint256"
        },
        {
          "internalType": "uint256",
          "name": "_nextDrawingTime",
          "type": "uint256"
        }
      ],
      "payable": false,
      "stateMutability": "nonpayable",
      "type": "constructor"
    },
    {
      "anonymous": false,
      "inputs": [
        {
          "indexed": false,
          "internalType": "uint256",
          "name": "option",
          "type": "uint256"
        }
      ],
      "name": "Winning_option",
      "type": "event"
    },
    {
      "constant": true,
      "inputs": [
        {
          "internalType": "uint256",
          "name": "",
          "type": "uint256"
        }
      ],
      "name": "bets",
      "outputs": [
        {
          "internalType": "address payable",
          "name": "user",
          "type": "address"
        },
        {
          "internalType": "uint256",
          "name": "weight_wei",
          "type": "uint256"
        },
        {
          "internalType": "uint256",
          "name": "option_idx",
          "type": "uint256"
        }
      ],
      "payable": false,
      "stateMutability": "view",
      "type": "function"
    },
    {
      "constant": true,
      "inputs": [
        {
          "internalType": "address",
          "name": "",
          "type": "address"
        }
      ],
      "name": "hasPlacedBet",
      "outputs": [
        {
          "internalType": "bool",
          "name": "",
          "type": "bool"
        }
      ],
      "payable": false,
      "stateMutability": "view",
      "type": "function"
    },
    {
      "constant": true,
      "inputs": [
        {
          "internalType": "uint256",
          "name": "",
          "type": "uint256"
        }
      ],
      "name": "prevBets",
      "outputs": [
        {
          "internalType": "address payable",
          "name": "user",
          "type": "address"
        },
        {
          "internalType": "uint256",
          "name": "weight_wei",
          "type": "uint256"
        },
        {
          "internalType": "uint256",
          "name": "option_idx",
          "type": "uint256"
        }
      ],
      "payable": false,
      "stateMutability": "view",
      "type": "function"
    },
    {
      "constant": true,
      "inputs": [],
      "name": "owner",
      "outputs": [
        {
          "internalType": "address",
          "name": "",
          "type": "address"
        }
      ],
      "payable": false,
      "stateMutability": "view",
      "type": "function"
    },
    {
      "constant": true,
      "inputs": [],
      "name": "nBets",
      "outputs": [
        {
          "internalType": "uint256",
          "name": "",
          "type": "uint256"
        }
      ],
      "payable": false,
      "stateMutability": "view",
      "type": "function"
    },
    {
      "constant": true,
      "inputs": [
        {
          "internalType": "uint256",
          "name": "_idx",
          "type": "uint256"
        }
      ],
      "name": "getNextDrawingTime",
      "outputs": [
        {
          "internalType": "uint256",
          "name": "",
          "type": "uint256"
        }
      ],
      "payable": false,
      "stateMutability": "view",
      "type": "function"
    },
    {
      "constant": true,
      "inputs": [
        {
          "internalType": "uint256",
          "name": "_idx",
          "type": "uint256"
        }
      ],
      "name": "getNOptions",
      "outputs": [
        {
          "internalType": "uint256",
          "name": "",
          "type": "uint256"
        }
      ],
      "payable": false,
      "stateMutability": "view",
      "type": "function"
    },
    {
      "constant": true,
      "inputs": [
        {
          "internalType": "uint256",
          "name": "_idx",
          "type": "uint256"
        }
      ],
      "name": "getWinningOption",
      "outputs": [
        {
          "internalType": "uint256",
          "name": "",
          "type": "uint256"
        }
      ],
      "payable": false,
      "stateMutability": "view",
      "type": "function"
    },
    {
      "constant": true,
      "inputs": [],
      "name": "getBets",
      "outputs": [
        {
          "internalType": "address[]",
          "name": "",
          "type": "address[]"
        },
        {
          "internalType": "uint256[]",
          "name": "",
          "type": "uint256[]"
        },
        {
          "internalType": "uint256[]",
          "name": "",
          "type": "uint256[]"
        }
      ],
      "payable": false,
      "stateMutability": "view",
      "type": "function"
    },
    {
      "constant": true,
      "inputs": [],
      "name": "getPrevBets",
      "outputs": [
        {
          "internalType": "address[]",
          "name": "",
          "type": "address[]"
        },
        {
          "internalType": "uint256[]",
          "name": "",
          "type": "uint256[]"
        },
        {
          "internalType": "uint256[]",
          "name": "",
          "type": "uint256[]"
        }
      ],
      "payable": false,
      "stateMutability": "view",
      "type": "function"
    },
    {
      "constant": false,
      "inputs": [
        {
          "internalType": "uint256",
          "name": "_nOptions",
          "type": "uint256"
        },
        {
          "internalType": "uint256",
          "name": "_nextDrawingTime",
          "type": "uint256"
        }
      ],
      "name": "eval_reset",
      "outputs": [],
      "payable": false,
      "stateMutability": "nonpayable",
      "type": "function"
    },
    {
      "constant": false,
      "inputs": [
        {
          "internalType": "uint256",
          "name": "option_idx",
          "type": "uint256"
        }
      ],
      "name": "placeBet",
      "outputs": [],
      "payable": true,
      "stateMutability": "payable",
      "type": "function"
    },
    {
      "constant": true,
      "inputs": [],
      "name": "viewMyBet",
      "outputs": [
        {
          "internalType": "address",
          "name": "",
          "type": "address"
        },
        {
          "internalType": "uint256",
          "name": "",
          "type": "uint256"
        },
        {
          "internalType": "uint256",
          "name": "",
          "type": "uint256"
        }
      ],
      "payable": false,
      "stateMutability": "view",
      "type": "function"
    }
  ],
  "bytecode": "0x60806040526000601f55600a60205534801561001a57600080fd5b506040516118d83803806118d88339818101604052604081101561003d57600080fd5b81019080805190602001909291908051906020019092919050505081600b601f54600a811061006857fe5b0181905550806001601f54600a811061007d57fe5b0181905550336000806101000a81548173ffffffffffffffffffffffffffffffffffffffff021916908373ffffffffffffffffffffffffffffffffffffffff1602179055505050611805806100d36000396000f3fe6080604052600436106100c25760003560e01c806353ecaf571161007f578063a6afd5fd11610059578063a6afd5fd14610448578063bcd3b66414610544578063c9b8df5b146105cd578063f3e9c5a214610632576100c2565b806353ecaf571461035d5780638da5cb5b146103a2578063a6286870146103f9576100c2565b806308cc2a1c146100c757806310fe7c48146100f257806311436b56146101205780631b250ba81461018957806322af00fa146101d85780634a77c3d214610261575b600080fd5b3480156100d357600080fd5b506100dc610681565b6040518082815260200191505060405180910390f35b61011e6004803603602081101561010857600080fd5b810190808035906020019092919050505061068e565b005b34801561012c57600080fd5b5061016f6004803603602081101561014357600080fd5b81019080803573ffffffffffffffffffffffffffffffffffffffff169060200190929190505050610a18565b604051808215151515815260200191505060405180910390f35b34801561019557600080fd5b506101c2600480360360208110156101ac57600080fd5b8101908080359060200190929190505050610a38565b6040518082815260200191505060405180910390f35b3480156101e457600080fd5b50610211600480360360208110156101fb57600080fd5b8101908080359060200190929190505050610a64565b604051808473ffffffffffffffffffffffffffffffffffffffff1673ffffffffffffffffffffffffffffffffffffffff168152602001838152602001828152602001935050505060405180910390f35b34801561026d57600080fd5b50610276610abb565b60405180806020018060200180602001848103845287818151815260200191508051906020019060200280838360005b838110156102c15780820151818401526020810190506102a6565b50505050905001848103835286818151815260200191508051906020019060200280838360005b838110156103035780820151818401526020810190506102e8565b50505050905001848103825285818151815260200191508051906020019060200280838360005b8381101561034557808201518184015260208101905061032a565b50505050905001965050505050505060405180910390f35b34801561036957600080fd5b506103a06004803603604081101561038057600080fd5b810190808035906020019092919080359060200190929190505050610ad5565b005b3480156103ae57600080fd5b506103b7610b9c565b604051808273ffffffffffffffffffffffffffffffffffffffff1673ffffffffffffffffffffffffffffffffffffffff16815260200191505060405180910390f35b34801561040557600080fd5b506104326004803603602081101561041c57600080fd5b8101908080359060200190929190505050610bc5565b6040518082815260200191505060405180910390f35b34801561045457600080fd5b5061045d610bf1565b60405180806020018060200180602001848103845287818151815260200191508051906020019060200280838360005b838110156104a857808201518184015260208101905061048d565b50505050905001848103835286818151815260200191508051906020019060200280838360005b838110156104ea5780820151818401526020810190506104cf565b50505050905001848103825285818151815260200191508051906020019060200280838360005b8381101561052c578082015181840152602081019050610511565b50505050905001965050505050505060405180910390f35b34801561055057600080fd5b5061057d6004803603602081101561056757600080fd5b8101908080359060200190929190505050610c0b565b604051808473ffffffffffffffffffffffffffffffffffffffff1673ffffffffffffffffffffffffffffffffffffffff168152602001838152602001828152602001935050505060405180910390f35b3480156105d957600080fd5b506105e2610c62565b604051808473ffffffffffffffffffffffffffffffffffffffff1673ffffffffffffffffffffffffffffffffffffffff168152602001838152602001828152602001935050505060405180910390f35b34801561063e57600080fd5b5061066b6004803603602081101561065557600080fd5b8101908080359060200190929190505050610e0d565b6040518082815260200191505060405180910390f35b6000602180549050905090565b806000111580156106ae5750600b601f54600a81106106a957fe5b015481105b8160405160200180828152602001807f206973206e6f7420612076616c6964206f7074696f6e000000000000000000008152506016019150506040516020818303038152906040529061079c576040517f08c379a00000000000000000000000000000000000000000000000000000000081526004018080602001828103825283818151815260200191508051906020019080838360005b83811015610761578082015181840152602081019050610746565b50505050905090810190601f16801561078e5780820380516001836020036101000a031916815260200191505b509250505060405180910390fd5b506001601f54600a81106107ac57fe5b01544210610805576040517f08c379a000000000000000000000000000000000000000000000000000000000815260040180806020018281038252603f8152602001806116c3603f913960400191505060405180910390fd5b602360003373ffffffffffffffffffffffffffffffffffffffff1673ffffffffffffffffffffffffffffffffffffffff16815260200190815260200160002060009054906101000a900460ff16156108a8576040517f08c379a00000000000000000000000000000000000000000000000000000000081526004018080602001828103825260368152602001806117726036913960400191505060405180910390fd5b60003411610901576040517f08c379a000000000000000000000000000000000000000000000000000000000815260040180806020018281038252603f815260200180611733603f913960400191505060405180910390fd5b602160405180606001604052803373ffffffffffffffffffffffffffffffffffffffff168152602001348152602001838152509080600181540180825580915050906001820390600052602060002090600302016000909192909190915060008201518160000160006101000a81548173ffffffffffffffffffffffffffffffffffffffff021916908373ffffffffffffffffffffffffffffffffffffffff16021790555060208201518160010155604082015181600201555050506001602360003373ffffffffffffffffffffffffffffffffffffffff1673ffffffffffffffffffffffffffffffffffffffff16815260200190815260200160002060006101000a81548160ff02191690831515021790555050565b60236020528060005260406000206000915054906101000a900460ff1681565b60008060205483601f540381610a4a57fe5b069050600181600a8110610a5a57fe5b0154915050919050565b60218181548110610a7157fe5b90600052602060002090600302016000915090508060000160009054906101000a900473ffffffffffffffffffffffffffffffffffffffff16908060010154908060020154905083565b6060806060610aca6022610e39565b925092509250909192565b60018211610b2e576040517f08c379a00000000000000000000000000000000000000000000000000000000081526004018080602001828103825260318152602001806117026031913960400191505060405180910390fd5b428111610b86576040517f08c379a00000000000000000000000000000000000000000000000000000000081526004018080602001828103825260298152602001806117a86029913960400191505060405180910390fd5b610b8e610fdc565b610b988282611453565b5050565b60008060009054906101000a900473ffffffffffffffffffffffffffffffffffffffff16905090565b60008060205483601f540381610bd757fe5b069050601581600a8110610be757fe5b0154915050919050565b6060806060610c006021610e39565b925092509250909192565b60228181548110610c1857fe5b90600052602060002090600302016000915090508060000160009054906101000a900473ffffffffffffffffffffffffffffffffffffffff16908060010154908060020154905083565b6000806000602360003373ffffffffffffffffffffffffffffffffffffffff1673ffffffffffffffffffffffffffffffffffffffff16815260200190815260200160002060009054906101000a900460ff16610d26576040517f08c379a000000000000000000000000000000000000000000000000000000000815260040180806020018281038252601d8152602001807f7573657220686173206e6f7420706c616365642061206265742079657400000081525060200191505060405180910390fd5b6000610d30610681565b905060008090505b81811015610e0557600060218281548110610d4f57fe5b906000526020600020906003020190503373ffffffffffffffffffffffffffffffffffffffff168160000160009054906101000a900473ffffffffffffffffffffffffffffffffffffffff1673ffffffffffffffffffffffffffffffffffffffff161415610df7578060000160009054906101000a900473ffffffffffffffffffffffffffffffffffffffff1681600101548260020154829250955095509550505050610e08565b508080600101915050610d38565b50505b909192565b60008060205483601f540381610e1f57fe5b069050600b81600a8110610e2f57fe5b0154915050919050565b6060806060808480549050604051908082528060200260200182016040528015610e725781602001602082028038833980820191505090505b50905060608580549050604051908082528060200260200182016040528015610eaa5781602001602082028038833980820191505090505b50905060608680549050604051908082528060200260200182016040528015610ee25781602001602082028038833980820191505090505b50905060008090505b8780549050811015610fc8576000888281548110610f0557fe5b906000526020600020906003020190508060000160009054906101000a900473ffffffffffffffffffffffffffffffffffffffff16858381518110610f4657fe5b602002602001019073ffffffffffffffffffffffffffffffffffffffff16908173ffffffffffffffffffffffffffffffffffffffff16815250508060010154848381518110610f9157fe5b6020026020010181815250508060020154838381518110610fae57fe5b602002602001018181525050508080600101915050610eeb565b508282829550955095505050509193909250565b6000610fe6610681565b1415610ff157611451565b6060600b601f54600a811061100257fe5b01546040519080825280602002602001820160405280156110325781602001602082028038833980820191505090505b50905060008090505b60218054905081101561109c5760006021828154811061105757fe5b9060005260206000209060030201905080600101548382600201548151811061107c57fe5b60200260200101818151019150818152505050808060010191505061103b565b506060600b601f54600a81106110ae57fe5b01546040519080825280602002602001820160405280156110de5781602001602082028038833980820191505090505b509050816000815181106110ee57fe5b60200260200101518160008151811061110357fe5b6020026020010181815250506000600190505b600b601f54600a811061112557fe5b015481101561117f5782818151811061113a57fe5b602002602001015182600183038151811061115157fe5b60200260200101510182828151811061116657fe5b6020026020010181815250508080600101915050611116565b506000816001600b601f54600a811061119457fe5b015403815181106111a157fe5b60200260200101519050600081116111b557fe5b6000814233604051602001808381526020018273ffffffffffffffffffffffffffffffffffffffff1673ffffffffffffffffffffffffffffffffffffffff1660601b8152601401925050506040516020818303038152906040528051906020012060001c8161122057fe5b069050600080600090505b600b601f54600a811061123a57fe5b01548110156112bf5784818151811061124f57fe5b60200260200101518310156112b2578091507f463d0e96e77f49cd0f14b49e755cf10a485a7158b0d2c3aa21af5b41bde35190826040518082815260200191505060405180910390a1816015601f54600a81106112a857fe5b01819055506112bf565b808060010191505061122b565b5060008582815181106112ce57fe5b6020026020010151905060008090505b602180549050811015611449576000602182815481106112fa57fe5b90600052602060002090600302019050838160020154141561143b57828160010154111561132457fe5b60008382600101548161133357fe5b04905060008260000160009054906101000a900473ffffffffffffffffffffffffffffffffffffffff1673ffffffffffffffffffffffffffffffffffffffff1682890260405180600001905060006040518083038185875af1925050503d80600081146113bc576040519150601f19603f3d011682016040523d82523d6000602084013e6113c1565b606091505b5050905080611438576040517f08c379a00000000000000000000000000000000000000000000000000000000081526004018080602001828103825260128152602001807f5472616e73616374696f6e206661696c6564000000000000000000000000000081525060200191505060405180910390fd5b50505b5080806001019150506112de565b505050505050505b565b60008090505b60218054905081101561150057602360006021838154811061147757fe5b906000526020600020906003020160000160009054906101000a900473ffffffffffffffffffffffffffffffffffffffff1673ffffffffffffffffffffffffffffffffffffffff1673ffffffffffffffffffffffffffffffffffffffff16815260200190815260200160002060006101000a81549060ff02191690558080600101915050611459565b506022600061150f9190611575565b60216022908054611521929190611599565b50602160006115309190611575565b6020546001601f54018161154057fe5b06601f81905550806001601f54600a811061155757fe5b018190555081600b601f54600a811061156c57fe5b01819055505050565b5080546000825560030290600052602060002090810190611596919061166c565b50565b82805482825590600052602060002090600302810192821561165b5760005260206000209160030282015b8281111561165a5782826000820160009054906101000a900473ffffffffffffffffffffffffffffffffffffffff168160000160006101000a81548173ffffffffffffffffffffffffffffffffffffffff021916908373ffffffffffffffffffffffffffffffffffffffff16021790555060018201548160010155600282015481600201555050916003019190600301906115c4565b5b509050611668919061166c565b5090565b6116bf91905b808211156116bb57600080820160006101000a81549073ffffffffffffffffffffffffffffffffffffffff02191690556001820160009055600282016000905550600301611672565b5090565b9056fe7468652063757272656e74206c6f747465727920697320636c6f73656420666f7220626574732e2077616974696e6720666f72206576616c756174696f6e2e6d6f7265207468616e206f6e65206f7074696f6e732061726520726571756972656420746f2063686f6f73652066726f6d746f20706c6163652061206265742c20746865206d73672e76616c75652028746865206d6f6e6579206265696e672062657429206d757374206265203e203073656e6465722068617320616c726561647920706c6163656420612062657420696e207468652063757272656e74206c6f7474657279746865206e65787444726177696e6754696d65206d75737420626520696e2074686520667574757265a265627a7a72315820689cc2ef0b6b5abd663790976f94d22f7870543d97b59bbaa3b5ca901de194d664736f6c63430005100032",
  "source": "pragma solidity >=0.5.16;\n\n\ncontract Lotto {\n    event Winning_option(uint256 option);\n\n    address private _owner; // owner of the contract\n\n    // unix timestamp representing the time when the current\n    // lottery ends and a new one starts.\n    uint256[10] private nextDrawingTime;\n    // number of options available in the current lottery\n    uint256[10] private nOptions;\n    // history of options which have won the lottery\n    uint256[10] private winningOption;\n    // pointer to the current head-location in nOptions and nextDrawingTime\n    uint256 private head = 0;\n    // note: nHistory is the length of the history which is stored. This number is hard coded\n    // in the arrays `nextDrawingTime` and `nOptions` due to the fact that its not possible to\n    // create an array of static length using a variable as the indicator of the length.\n    // explanation at: https://ethereum.stackexchange.com/a/12434\n    uint256 private nHistory = 10;\n\n    struct Bet {\n        address payable user; // the users ethereum address who has placed the bet\n        uint256 weight_wei; // amount of ether spent in wei\n        uint256 option_idx; // index into the option array\n    }\n\n    Bet[] public bets; // list of bets for the current Lottery\n    Bet[] public prevBets; // list of bets from the previous Lottery\n\n    mapping(address => bool) public hasPlacedBet; // mapping to check if a user has already set a bet\n\n    constructor(uint256 _nOptions, uint256 _nextDrawingTime) public {\n        nOptions[head] = _nOptions;\n        nextDrawingTime[head] = _nextDrawingTime;\n        _owner = msg.sender;\n    }\n\n    /**\n     * @dev Returns the address of the current owner.\n     */\n    function owner() public view returns (address) {\n        return _owner;\n    }\n\n    /**\n     * @dev Throws if called by any account other than the owner.\n     */\n    modifier onlyOwner() {\n        require(_owner == msg.sender, \"Ownable: caller is not the owner\");\n        _;\n    }\n\n    function nBets() public view returns (uint256) {\n        return bets.length;\n    }\n\n    function getNextDrawingTime(uint256 _idx) public view returns (uint) {\n        uint256 idx = (head - _idx) % nHistory;\n        return nextDrawingTime[idx];\n    }\n\n    function getNOptions(uint256 _idx) public view returns (uint) {\n        uint256 idx = (head - _idx) % nHistory;\n        return nOptions[idx];\n    }\n\n    function getWinningOption(uint256 _idx) public view returns (uint) {\n        uint256 idx = (head - _idx) % nHistory;\n        return winningOption[idx];\n    }\n\n    function getBetsOf(Bet[] storage _bets) internal view returns (address[] memory, uint[] memory, uint[] memory) {\n        address[] memory addrs = new address[](_bets.length);\n        uint[] memory weights = new uint[](_bets.length);\n        uint[] memory opt_idcs = new uint[](_bets.length);\n\n        for (uint256 i = 0; i < _bets.length; i++) {\n            Bet storage bet = _bets[i];\n            addrs[i] = bet.user;\n            weights[i] = bet.weight_wei;\n            opt_idcs[i] = bet.option_idx;\n        }\n\n        return (addrs, weights, opt_idcs);\n    }\n\n    function getBets() public view returns (address[] memory, uint[] memory, uint[] memory) {\n        return getBetsOf(bets);\n    }\n\n    function getPrevBets() public view returns (address[] memory, uint[] memory, uint[] memory) {\n        return getBetsOf(prevBets);\n    }\n\n    function _resetLottery(uint256 _nOptions, uint256 _nextDrawingTime) private {\n        for (uint256 i = 0; i < bets.length; i++) {\n            delete hasPlacedBet[bets[i].user];\n        }\n        delete prevBets;\n\n        prevBets = bets;\n        delete bets;\n\n        head = (head + 1) % nHistory;\n        nextDrawingTime[head] = _nextDrawingTime;\n        nOptions[head] = _nOptions;\n    }\n\n    function _eval() private {\n        if (nBets() == 0) {\n            return;\n        }\n\n        // for every option, sum all the money (weigh_wei) up and save it in\n        // the temporary array weightPerOption.\n        uint256[] memory weightPerOption = new uint256[](nOptions[head]);\n        for (uint256 i = 0; i < bets.length; i++) {\n            Bet storage bet = bets[i];\n            weightPerOption[bet.option_idx] += bet.weight_wei;\n        }\n\n        // create a cumulative sum array named cumWeight over weightPerOption.\n        uint256[] memory cumWeight = new uint256[](nOptions[head]);\n        cumWeight[0] = weightPerOption[0];\n        for (uint256 i = 1; i < nOptions[head]; i++) {\n            cumWeight[i] = cumWeight[i - 1] + weightPerOption[i];\n        }\n\n        // sum_wei is the sum of all the money that has been bet in this lottery\n        uint256 sum_wei = cumWeight[nOptions[head] - 1];\n\n        // this assert holds becaus if no bet has been place we have already returned and\n        // it is not possible to place a bet with a weight of 0.\n        assert(sum_wei > 0);\n        // todo: subtract our own money from sum_wei\n\n        // winning_value is a random number in range [0, sum_wei-1].\n        // winning_option is the option (a number in range [0, nOptions[head]-1]) which has won the lottery.\n        uint256 winning_value = uint256(\n            keccak256(abi.encodePacked(now, msg.sender))\n        ) % sum_wei;\n        uint256 winning_option;\n        for (uint256 i = 0; i < nOptions[head]; i++) {\n            if (winning_value < cumWeight[i]) {\n                winning_option = i;\n                emit Winning_option(winning_option);\n                winningOption[head] = winning_option;\n                break;\n            }\n        }\n\n        // pay out every user who has bet on the winning_option.\n        // the money he receives is a fraction of all the money in the jackpot:\n        // the fraction is what the current user has bet on the winning_option (bet.weight_wei)\n        // compared to all the money that has been bet on the winning_option (winning_option_sum)\n        uint256 winning_option_sum = weightPerOption[winning_option];\n        for (uint256 i = 0; i < bets.length; i++) {\n            Bet storage bet = bets[i];\n            if (bet.option_idx == winning_option) {\n                // using call.value() due to: https://ethereum.stackexchange.com/a/19343\n                assert(bet.weight_wei <= winning_option_sum);\n                uint256 fraction = bet.weight_wei / winning_option_sum; // todo: handle the remainder\n                (bool success, ) = bet.user.call.value(sum_wei * fraction)(\"\");\n                require(success, \"Transaction failed\");\n            }\n        }\n    }\n\n    function eval_reset(uint256 _nOptions, uint256 _nextDrawingTime) public {\n        // todo: only contract owner can call this\n        require(\n            _nOptions > 1,\n            \"more than one options are required to choose from\"\n        );\n        require(\n            _nextDrawingTime > now,\n            \"the nextDrawingTime must be in the future\"\n        );\n        _eval();\n        _resetLottery(_nOptions, _nextDrawingTime);\n    }\n\n    function placeBet(uint256 option_idx) public payable {\n        require(0 <= option_idx && option_idx < nOptions[head], string(abi.encodePacked(option_idx, \" is not a valid option\")));\n        require(now < nextDrawingTime[head], \"the current lottery is closed for bets. waiting for evaluation.\");\n        require(!hasPlacedBet[msg.sender], \"sender has already placed a bet in the current lottery\");\n        require(msg.value > 0, \"to place a bet, the msg.value (the money being bet) must be > 0\");\n        bets.push(Bet(msg.sender, msg.value, option_idx));\n        hasPlacedBet[msg.sender] = true;\n    }\n\n    function viewMyBet() public view returns (address, uint, uint) {\n        require(hasPlacedBet[msg.sender], \"user has not placed a bet yet\");\n        uint256 numBets = nBets();\n        for (uint256 i = 0; i < numBets; i++) {\n            Bet storage bet = bets[i];\n            if (bet.user == msg.sender) {\n                return (bet.user, bet.weight_wei, bet.option_idx);\n            }\n        }\n    }\n}\n",
  "sourcePath": "/home/fyodor/Documents/studium-module/blch/blockchain-lottery/contracts/Lotto.sol",
  "compiler": {
    "name": "solc",
    "version": "0.5.16+commit.9c3226ce.Emscripten.clang"
  },
  "schemaVersion": "3.2.0",
  "updatedAt": "2020-06-09T15:14:48.038Z",
  "networkType": "ethereum",
  "devdoc": {
    "methods": {
      "owner()": {
        "details": "Returns the address of the current owner."
      }
    }
  },
  "userdoc": {
    "methods": {}
  }
}